{
  "_format": "hh-sol-artifact-1",
  "contractName": "Stash",
  "sourceName": "contracts/Stash.sol",
  "abi": [
    {
      "inputs": [
        {
          "internalType": "address",
          "name": "_joeRouter",
          "type": "address"
        },
        {
          "internalType": "address",
          "name": "_autoLiquidityReceiver",
          "type": "address"
        },
        {
          "internalType": "address",
          "name": "_treasuryReceiver",
          "type": "address"
        },
        {
          "internalType": "address",
          "name": "_stashInsuranceFundReceiver",
          "type": "address"
        }
      ],
      "stateMutability": "nonpayable",
      "type": "constructor"
    },
    {
      "anonymous": false,
      "inputs": [
        {
          "indexed": true,
          "internalType": "address",
          "name": "owner",
          "type": "address"
        },
        {
          "indexed": true,
          "internalType": "address",
          "name": "spender",
          "type": "address"
        },
        {
          "indexed": false,
          "internalType": "uint256",
          "name": "value",
          "type": "uint256"
        }
      ],
      "name": "Approval",
      "type": "event"
    },
    {
      "anonymous": false,
      "inputs": [
        {
          "indexed": true,
          "internalType": "uint256",
          "name": "epoch",
          "type": "uint256"
        },
        {
          "indexed": false,
          "internalType": "uint256",
          "name": "totalSupply",
          "type": "uint256"
        }
      ],
      "name": "LogRebase",
      "type": "event"
    },
    {
      "anonymous": false,
      "inputs": [
        {
          "indexed": true,
          "internalType": "address",
          "name": "previousOwner",
          "type": "address"
        },
        {
          "indexed": true,
          "internalType": "address",
          "name": "newOwner",
          "type": "address"
        }
      ],
      "name": "OwnershipTransferred",
      "type": "event"
    },
    {
      "anonymous": false,
      "inputs": [
        {
          "indexed": true,
          "internalType": "address",
          "name": "from",
          "type": "address"
        },
        {
          "indexed": true,
          "internalType": "address",
          "name": "to",
          "type": "address"
        },
        {
          "indexed": false,
          "internalType": "uint256",
          "name": "value",
          "type": "uint256"
        }
      ],
      "name": "Transfer",
      "type": "event"
    },
    {
      "inputs": [],
      "name": "ADD_LIQUIDITY_PERIOD",
      "outputs": [
        {
          "internalType": "uint256",
          "name": "",
          "type": "uint256"
        }
      ],
      "stateMutability": "view",
      "type": "function"
    },
    {
      "inputs": [],
      "name": "MAX_UINT256",
      "outputs": [
        {
          "internalType": "uint256",
          "name": "",
          "type": "uint256"
        }
      ],
      "stateMutability": "view",
      "type": "function"
    },
    {
      "inputs": [],
      "name": "RATE_DECIMALS",
      "outputs": [
        {
          "internalType": "uint8",
          "name": "",
          "type": "uint8"
        }
      ],
      "stateMutability": "view",
      "type": "function"
    },
    {
      "inputs": [],
      "name": "REBASE_PERIOD",
      "outputs": [
        {
          "internalType": "uint256",
          "name": "",
          "type": "uint256"
        }
      ],
      "stateMutability": "view",
      "type": "function"
    },
    {
      "inputs": [
        {
          "internalType": "address",
          "name": "owner_",
          "type": "address"
        },
        {
          "internalType": "address",
          "name": "spender",
          "type": "address"
        }
      ],
      "name": "allowance",
      "outputs": [
        {
          "internalType": "uint256",
          "name": "",
          "type": "uint256"
        }
      ],
      "stateMutability": "view",
      "type": "function"
    },
    {
      "inputs": [
        {
          "internalType": "address",
          "name": "spender",
          "type": "address"
        },
        {
          "internalType": "uint256",
          "name": "value",
          "type": "uint256"
        }
      ],
      "name": "approve",
      "outputs": [
        {
          "internalType": "bool",
          "name": "",
          "type": "bool"
        }
      ],
      "stateMutability": "nonpayable",
      "type": "function"
    },
    {
      "inputs": [],
      "name": "autoAddLiquidity",
      "outputs": [
        {
          "internalType": "bool",
          "name": "",
          "type": "bool"
        }
      ],
      "stateMutability": "view",
      "type": "function"
    },
    {
      "inputs": [],
      "name": "autoLiquidityReceiver",
      "outputs": [
        {
          "internalType": "address",
          "name": "",
          "type": "address"
        }
      ],
      "stateMutability": "view",
      "type": "function"
    },
    {
      "inputs": [],
      "name": "autoRebase",
      "outputs": [
        {
          "internalType": "bool",
          "name": "",
          "type": "bool"
        }
      ],
      "stateMutability": "view",
      "type": "function"
    },
    {
      "inputs": [
        {
          "internalType": "address",
          "name": "who",
          "type": "address"
        }
      ],
      "name": "balanceOf",
      "outputs": [
        {
          "internalType": "uint256",
          "name": "",
          "type": "uint256"
        }
      ],
      "stateMutability": "view",
      "type": "function"
    },
    {
      "inputs": [],
      "name": "basicRebaseRate",
      "outputs": [
        {
          "internalType": "uint256",
          "name": "",
          "type": "uint256"
        }
      ],
      "stateMutability": "view",
      "type": "function"
    },
    {
      "inputs": [
        {
          "internalType": "address",
          "name": "",
          "type": "address"
        }
      ],
      "name": "blacklist",
      "outputs": [
        {
          "internalType": "bool",
          "name": "",
          "type": "bool"
        }
      ],
      "stateMutability": "view",
      "type": "function"
    },
    {
      "inputs": [],
      "name": "burnRate",
      "outputs": [
        {
          "internalType": "uint256",
          "name": "",
          "type": "uint256"
        }
      ],
      "stateMutability": "view",
      "type": "function"
    },
    {
      "inputs": [
        {
          "internalType": "address",
          "name": "_addr",
          "type": "address"
        }
      ],
      "name": "checkFeeExempt",
      "outputs": [
        {
          "internalType": "bool",
          "name": "",
          "type": "bool"
        }
      ],
      "stateMutability": "view",
      "type": "function"
    },
    {
      "inputs": [],
      "name": "decimals",
      "outputs": [
        {
          "internalType": "uint8",
          "name": "",
          "type": "uint8"
        }
      ],
      "stateMutability": "pure",
      "type": "function"
    },
    {
      "inputs": [
        {
          "internalType": "address",
          "name": "spender",
          "type": "address"
        },
        {
          "internalType": "uint256",
          "name": "subtractedValue",
          "type": "uint256"
        }
      ],
      "name": "decreaseAllowance",
      "outputs": [
        {
          "internalType": "bool",
          "name": "",
          "type": "bool"
        }
      ],
      "stateMutability": "nonpayable",
      "type": "function"
    },
    {
      "inputs": [],
      "name": "feeDenominator",
      "outputs": [
        {
          "internalType": "uint256",
          "name": "",
          "type": "uint256"
        }
      ],
      "stateMutability": "view",
      "type": "function"
    },
    {
      "inputs": [],
      "name": "getCirculatingSupply",
      "outputs": [
        {
          "internalType": "uint256",
          "name": "",
          "type": "uint256"
        }
      ],
      "stateMutability": "view",
      "type": "function"
    },
    {
      "inputs": [
        {
          "internalType": "uint256",
          "name": "accuracy",
          "type": "uint256"
        }
      ],
      "name": "getLiquidityBacking",
      "outputs": [
        {
          "internalType": "uint256",
          "name": "",
          "type": "uint256"
        }
      ],
      "stateMutability": "view",
      "type": "function"
    },
    {
      "inputs": [],
      "name": "getRebaseRate",
      "outputs": [
        {
          "internalType": "uint256",
          "name": "rebaseRate",
          "type": "uint256"
        }
      ],
      "stateMutability": "view",
      "type": "function"
    },
    {
      "inputs": [
        {
          "internalType": "address",
          "name": "spender",
          "type": "address"
        },
        {
          "internalType": "uint256",
          "name": "addedValue",
          "type": "uint256"
        }
      ],
      "name": "increaseAllowance",
      "outputs": [
        {
          "internalType": "bool",
          "name": "",
          "type": "bool"
        }
      ],
      "stateMutability": "nonpayable",
      "type": "function"
    },
    {
      "inputs": [],
      "name": "initRebaseStartTime",
      "outputs": [
        {
          "internalType": "uint256",
          "name": "",
          "type": "uint256"
        }
      ],
      "stateMutability": "view",
      "type": "function"
    },
    {
      "inputs": [],
      "name": "isNotInSwap",
      "outputs": [
        {
          "internalType": "bool",
          "name": "",
          "type": "bool"
        }
      ],
      "stateMutability": "view",
      "type": "function"
    },
    {
      "inputs": [],
      "name": "lastAddLiquidityTime",
      "outputs": [
        {
          "internalType": "uint256",
          "name": "",
          "type": "uint256"
        }
      ],
      "stateMutability": "view",
      "type": "function"
    },
    {
      "inputs": [],
      "name": "lastRebasedTime",
      "outputs": [
        {
          "internalType": "uint256",
          "name": "",
          "type": "uint256"
        }
      ],
      "stateMutability": "view",
      "type": "function"
    },
    {
      "inputs": [],
      "name": "liquidityFee",
      "outputs": [
        {
          "internalType": "uint256",
          "name": "",
          "type": "uint256"
        }
      ],
      "stateMutability": "view",
      "type": "function"
    },
    {
      "inputs": [],
      "name": "manualSync",
      "outputs": [],
      "stateMutability": "nonpayable",
      "type": "function"
    },
    {
      "inputs": [],
      "name": "name",
      "outputs": [
        {
          "internalType": "string",
          "name": "",
          "type": "string"
        }
      ],
      "stateMutability": "pure",
      "type": "function"
    },
    {
      "inputs": [],
      "name": "owner",
      "outputs": [
        {
          "internalType": "address",
          "name": "",
          "type": "address"
        }
      ],
      "stateMutability": "view",
      "type": "function"
    },
    {
      "inputs": [],
      "name": "pair",
      "outputs": [
        {
          "internalType": "address",
          "name": "",
          "type": "address"
        }
      ],
      "stateMutability": "view",
      "type": "function"
    },
    {
      "inputs": [],
      "name": "renounceOwnership",
      "outputs": [],
      "stateMutability": "nonpayable",
      "type": "function"
    },
    {
      "inputs": [],
      "name": "rescue",
      "outputs": [],
      "stateMutability": "nonpayable",
      "type": "function"
    },
    {
      "inputs": [
        {
          "internalType": "address",
          "name": "tokenAddress",
          "type": "address"
        },
        {
          "internalType": "uint256",
          "name": "amount",
          "type": "uint256"
        }
      ],
      "name": "rescueToken",
      "outputs": [],
      "stateMutability": "nonpayable",
      "type": "function"
    },
    {
      "inputs": [],
      "name": "router",
      "outputs": [
        {
          "internalType": "contract IJoeRouter",
          "name": "",
          "type": "address"
        }
      ],
      "stateMutability": "view",
      "type": "function"
    },
    {
      "inputs": [],
      "name": "sellFee",
      "outputs": [
        {
          "internalType": "uint256",
          "name": "",
          "type": "uint256"
        }
      ],
      "stateMutability": "view",
      "type": "function"
    },
    {
      "inputs": [
        {
          "internalType": "bool",
          "name": "_flag",
          "type": "bool"
        }
      ],
      "name": "setAutoAddLiquidity",
      "outputs": [],
      "stateMutability": "nonpayable",
      "type": "function"
    },
    {
      "inputs": [
        {
          "internalType": "bool",
          "name": "_flag",
          "type": "bool"
        }
      ],
      "name": "setAutoRebase",
      "outputs": [],
      "stateMutability": "nonpayable",
      "type": "function"
    },
    {
      "inputs": [
        {
          "internalType": "uint256",
          "name": "value",
          "type": "uint256"
        }
      ],
      "name": "setBasicRebaseRate",
      "outputs": [],
      "stateMutability": "nonpayable",
      "type": "function"
    },
    {
      "inputs": [
        {
          "internalType": "address",
          "name": "_botAddress",
          "type": "address"
        },
        {
          "internalType": "bool",
          "name": "_flag",
          "type": "bool"
        }
      ],
      "name": "setBotBlacklist",
      "outputs": [],
      "stateMutability": "nonpayable",
      "type": "function"
    },
    {
      "inputs": [
        {
          "internalType": "address",
          "name": "_autoLiquidityReceiver",
          "type": "address"
        },
        {
          "internalType": "address",
          "name": "_treasuryReceiver",
          "type": "address"
        },
        {
          "internalType": "address",
          "name": "_stashInsuranceFundReceiver",
          "type": "address"
        }
      ],
      "name": "setFeeReceivers",
      "outputs": [],
      "stateMutability": "nonpayable",
      "type": "function"
    },
    {
      "inputs": [
        {
          "internalType": "uint256",
          "name": "_liquidityFee",
          "type": "uint256"
        },
        {
          "internalType": "uint256",
          "name": "_treasuryFee",
          "type": "uint256"
        },
        {
          "internalType": "uint256",
          "name": "_stashInsuranceFundFee",
          "type": "uint256"
        },
        {
          "internalType": "uint256",
          "name": "_sellFee",
          "type": "uint256"
        },
        {
          "internalType": "uint256",
          "name": "_burnRate",
          "type": "uint256"
        },
        {
          "internalType": "uint256",
          "name": "_feeDenominator",
          "type": "uint256"
        }
      ],
      "name": "setFees",
      "outputs": [],
      "stateMutability": "nonpayable",
      "type": "function"
    },
    {
      "inputs": [
        {
          "internalType": "address",
          "name": "_address",
          "type": "address"
        }
      ],
      "name": "setLP",
      "outputs": [],
      "stateMutability": "nonpayable",
      "type": "function"
    },
    {
      "inputs": [
        {
          "internalType": "address",
          "name": "_addr",
          "type": "address"
        }
      ],
      "name": "setWhitelist",
      "outputs": [],
      "stateMutability": "nonpayable",
      "type": "function"
    },
    {
      "inputs": [],
      "name": "stashInsuranceFundFee",
      "outputs": [
        {
          "internalType": "uint256",
          "name": "",
          "type": "uint256"
        }
      ],
      "stateMutability": "view",
      "type": "function"
    },
    {
      "inputs": [],
      "name": "stashInsuranceFundReceiver",
      "outputs": [
        {
          "internalType": "address",
          "name": "",
          "type": "address"
        }
      ],
      "stateMutability": "view",
      "type": "function"
    },
    {
      "inputs": [],
      "name": "swapEnabled",
      "outputs": [
        {
          "internalType": "bool",
          "name": "",
          "type": "bool"
        }
      ],
      "stateMutability": "view",
      "type": "function"
    },
    {
      "inputs": [],
      "name": "symbol",
      "outputs": [
        {
          "internalType": "string",
          "name": "",
          "type": "string"
        }
      ],
      "stateMutability": "pure",
      "type": "function"
    },
    {
      "inputs": [],
      "name": "totalFee",
      "outputs": [
        {
          "internalType": "uint256",
          "name": "",
          "type": "uint256"
        }
      ],
      "stateMutability": "view",
      "type": "function"
    },
    {
      "inputs": [],
      "name": "totalSupply",
      "outputs": [
        {
          "internalType": "uint256",
          "name": "",
          "type": "uint256"
        }
      ],
      "stateMutability": "view",
      "type": "function"
    },
    {
      "inputs": [
        {
          "internalType": "address",
          "name": "to",
          "type": "address"
        },
        {
          "internalType": "uint256",
          "name": "value",
          "type": "uint256"
        }
      ],
      "name": "transfer",
      "outputs": [
        {
          "internalType": "bool",
          "name": "",
          "type": "bool"
        }
      ],
      "stateMutability": "nonpayable",
      "type": "function"
    },
    {
      "inputs": [
        {
          "internalType": "address",
          "name": "from",
          "type": "address"
        },
        {
          "internalType": "address",
          "name": "to",
          "type": "address"
        },
        {
          "internalType": "uint256",
          "name": "value",
          "type": "uint256"
        }
      ],
      "name": "transferFrom",
      "outputs": [
        {
          "internalType": "bool",
          "name": "",
          "type": "bool"
        }
      ],
      "stateMutability": "nonpayable",
      "type": "function"
    },
    {
      "inputs": [
        {
          "internalType": "address",
          "name": "newOwner",
          "type": "address"
        }
      ],
      "name": "transferOwnership",
      "outputs": [],
      "stateMutability": "nonpayable",
      "type": "function"
    },
    {
      "inputs": [],
      "name": "treasuryFee",
      "outputs": [
        {
          "internalType": "uint256",
          "name": "",
          "type": "uint256"
        }
      ],
      "stateMutability": "view",
      "type": "function"
    },
    {
      "inputs": [],
      "name": "treasuryReceiver",
      "outputs": [
        {
          "internalType": "address",
          "name": "",
          "type": "address"
        }
      ],
      "stateMutability": "view",
      "type": "function"
    },
    {
      "inputs": [],
      "name": "withdrawAllToTreasury",
      "outputs": [],
      "stateMutability": "nonpayable",
      "type": "function"
    },
    {
      "stateMutability": "payable",
      "type": "receive"
    }
  ],
  "bytecode": "0x608060405260008060146101000a81548160ff021916908315150217905550610946600655602860075560146008556032600955601e600a556014600b5562000091600b546200007d60095462000069600854600754620007a060201b620027d41790919060201c565b620007a060201b620027d41790919060201c565b620007a060201b620027d41790919060201c565b600c556103e8600d5560016014806101000a81548160ff021916908315150217905550348015620000c157600080fd5b5060405162005db338038062005db38339818101604052810190620000e7919062000906565b62000107620000fb620007b860201b60201c565b620007c060201b60201c565b83601660006101000a81548173ffffffffffffffffffffffffffffffffffffffff021916908373ffffffffffffffffffffffffffffffffffffffff160217905550601660009054906101000a900473ffffffffffffffffffffffffffffffffffffffff1673ffffffffffffffffffffffffffffffffffffffff1663c45a01556040518163ffffffff1660e01b8152600401602060405180830381865afa158015620001b6573d6000803e3d6000fd5b505050506040513d601f19601f82011682018060405250810190620001dc919062000978565b73ffffffffffffffffffffffffffffffffffffffff1663c9c65396601660009054906101000a900473ffffffffffffffffffffffffffffffffffffffff1673ffffffffffffffffffffffffffffffffffffffff166373b295c26040518163ffffffff1660e01b8152600401602060405180830381865afa15801562000265573d6000803e3d6000fd5b505050506040513d601f19601f820116820180604052508101906200028b919062000978565b306040518363ffffffff1660e01b8152600401620002ab929190620009bb565b6020604051808303816000875af1158015620002cb573d6000803e3d6000fd5b505050506040513d601f19601f82011682018060405250810190620002f1919062000978565b601560006101000a81548173ffffffffffffffffffffffffffffffffffffffff021916908373ffffffffffffffffffffffffffffffffffffffff16021790555082601260006101000a81548173ffffffffffffffffffffffffffffffffffffffff021916908373ffffffffffffffffffffffffffffffffffffffff16021790555081601360006101000a81548173ffffffffffffffffffffffffffffffffffffffff021916908373ffffffffffffffffffffffffffffffffffffffff16021790555080601460006101000a81548173ffffffffffffffffffffffffffffffffffffffff021916908373ffffffffffffffffffffffffffffffffffffffff160217905550600019600560003073ffffffffffffffffffffffffffffffffffffffff1673ffffffffffffffffffffffffffffffffffffffff1681526020019081526020016000206000601660009054906101000a900473ffffffffffffffffffffffffffffffffffffffff1673ffffffffffffffffffffffffffffffffffffffff1673ffffffffffffffffffffffffffffffffffffffff168152602001908152602001600020819055506005600a620004a9919062000b82565b6207a120620004b9919062000bd3565b6001819055506005600a620004cf919062000b82565b6207a120620004df919062000bd3565b600019620004ee919062000c63565b600019620004fd919062000c9b565b60046000601360009054906101000a900473ffffffffffffffffffffffffffffffffffffffff1673ffffffffffffffffffffffffffffffffffffffff1673ffffffffffffffffffffffffffffffffffffffff16815260200190815260200160002081905550620005bb6001546005600a62000579919062000b82565b6207a12062000589919062000bd3565b60001962000598919062000c63565b600019620005a7919062000c9b565b6200088460201b620027ea1790919060201c565b60028190555042600f81905550426010819055506001600e60006101000a81548160ff0219169083151502179055506001600e60016101000a81548160ff021916908315150217905550600160036000601360009054906101000a900473ffffffffffffffffffffffffffffffffffffffff1673ffffffffffffffffffffffffffffffffffffffff1673ffffffffffffffffffffffffffffffffffffffff16815260200190815260200160002060006101000a81548160ff0219169083151502179055506001600360003073ffffffffffffffffffffffffffffffffffffffff1673ffffffffffffffffffffffffffffffffffffffff16815260200190815260200160002060006101000a81548160ff0219169083151502179055506200070a601360009054906101000a900473ffffffffffffffffffffffffffffffffffffffff16620007c060201b60201c565b601360009054906101000a900473ffffffffffffffffffffffffffffffffffffffff1673ffffffffffffffffffffffffffffffffffffffff16600073ffffffffffffffffffffffffffffffffffffffff167fddf252ad1be2c89b69c2b068fc378daa952ba7f163c4a11628f55a4df523b3ef6001546040516200078e919062000ce7565b60405180910390a35050505062000d99565b60008183620007b0919062000d04565b905092915050565b600033905090565b60008060009054906101000a900473ffffffffffffffffffffffffffffffffffffffff169050816000806101000a81548173ffffffffffffffffffffffffffffffffffffffff021916908373ffffffffffffffffffffffffffffffffffffffff1602179055508173ffffffffffffffffffffffffffffffffffffffff168173ffffffffffffffffffffffffffffffffffffffff167f8be0079c531659141344cd1fd0a4f28419497f9722a3daafe3b4186f6b6457e060405160405180910390a35050565b6000818362000894919062000d61565b905092915050565b600080fd5b600073ffffffffffffffffffffffffffffffffffffffff82169050919050565b6000620008ce82620008a1565b9050919050565b620008e081620008c1565b8114620008ec57600080fd5b50565b6000815190506200090081620008d5565b92915050565b600080600080608085870312156200092357620009226200089c565b5b60006200093387828801620008ef565b94505060206200094687828801620008ef565b93505060406200095987828801620008ef565b92505060606200096c87828801620008ef565b91505092959194509250565b6000602082840312156200099157620009906200089c565b5b6000620009a184828501620008ef565b91505092915050565b620009b581620008c1565b82525050565b6000604082019050620009d26000830185620009aa565b620009e16020830184620009aa565b9392505050565b7f4e487b7100000000000000000000000000000000000000000000000000000000600052601160045260246000fd5b60008160011c9050919050565b6000808291508390505b600185111562000a765780860481111562000a4e5762000a4d620009e8565b5b600185161562000a5e5780820291505b808102905062000a6e8562000a17565b945062000a2e565b94509492505050565b60008262000a91576001905062000b64565b8162000aa1576000905062000b64565b816001811462000aba576002811462000ac55762000afb565b600191505062000b64565b60ff84111562000ada5762000ad9620009e8565b5b8360020a91508482111562000af45762000af3620009e8565b5b5062000b64565b5060208310610133831016604e8410600b841016171562000b355782820a90508381111562000b2f5762000b2e620009e8565b5b62000b64565b62000b44848484600162000a24565b9250905081840481111562000b5e5762000b5d620009e8565b5b81810290505b9392505050565b6000819050919050565b600060ff82169050919050565b600062000b8f8262000b6b565b915062000b9c8362000b75565b925062000bcb7fffffffffffffffffffffffffffffffffffffffffffffffffffffffffffffffff848462000a7f565b905092915050565b600062000be08262000b6b565b915062000bed8362000b6b565b9250817fffffffffffffffffffffffffffffffffffffffffffffffffffffffffffffffff048311821515161562000c295762000c28620009e8565b5b828202905092915050565b7f4e487b7100000000000000000000000000000000000000000000000000000000600052601260045260246000fd5b600062000c708262000b6b565b915062000c7d8362000b6b565b92508262000c905762000c8f62000c34565b5b828206905092915050565b600062000ca88262000b6b565b915062000cb58362000b6b565b92508282101562000ccb5762000cca620009e8565b5b828203905092915050565b62000ce18162000b6b565b82525050565b600060208201905062000cfe600083018462000cd6565b92915050565b600062000d118262000b6b565b915062000d1e8362000b6b565b9250827fffffffffffffffffffffffffffffffffffffffffffffffffffffffffffffffff0382111562000d565762000d55620009e8565b5b828201905092915050565b600062000d6e8262000b6b565b915062000d7b8362000b6b565b92508262000d8e5762000d8d62000c34565b5b828204905092915050565b61500a8062000da96000396000f3fe6080604052600436106103545760003560e01c806382b97bec116101c6578063bed99850116100f7578063dd62ed3e11610095578063efd462bb1161006f578063efd462bb14610c31578063f2fde38b14610c5c578063f887ea4014610c85578063f9f92be414610cb05761035b565b8063dd62ed3e14610ba0578063e15beb8014610bdd578063e33e42f414610c065761035b565b8063cfbac92f116100d1578063cfbac92f14610ad4578063d439979014610afd578063d51ed1c814610b3a578063d7c0103214610b775761035b565b8063bed9985014610a53578063ca33e64c14610a7e578063cc32d17614610aa95761035b565b806398118cb411610164578063a8aa1b311161013e578063a8aa1b31146109a9578063a9059cbb146109d4578063ba71c44e14610a11578063bd59558114610a3c5761035b565b806398118cb4146109165780639d12ec0114610941578063a457c2d71461096c5761035b565b806386f6c3c1116101a057806386f6c3c11461086c5780638da5cb5b146108955780639079f932146108c057806395d89b41146108eb5761035b565b806382b97bec146107ed57806383b4ac6814610818578063854cff2f146108435761035b565b8063313ce567116102a057806364452b011161023e5780636ddd1713116102185780636ddd17131461075757806370a0823114610782578063715018a6146107bf578063753d02a1146107d65761035b565b806364452b01146106d6578063650a0ac81461070157806368381a881461072c5761035b565b806337c9be871161027a57806337c9be871461061a57806339509351146106435780635a604c52146106805780636085e220146106ab5761035b565b8063313ce5671461059b57806333a581d2146105c657806333f3d628146105f15761035b565b80631df4ccfc1161030d57806323b872dd116102e757806323b872dd146104df5780632b112e491461051c5780632b14ca56146105475780632f34d282146105725761035b565b80631df4ccfc146104745780631fbe19791461049f57806320a94780146104b65761035b565b806306fdde031461036057806308b1fd8f1461038b578063095ea7b3146103b6578063180b0d7e146103f357806318160ddd1461041e57806318601972146104495761035b565b3661035b57005b600080fd5b34801561036c57600080fd5b50610375610ced565b604051610382919061418d565b60405180910390f35b34801561039757600080fd5b506103a0610d2a565b6040516103ad91906141f0565b60405180910390f35b3480156103c257600080fd5b506103dd60048036038101906103d89190614272565b610d50565b6040516103ea91906142cd565b60405180910390f35b3480156103ff57600080fd5b50610408610e42565b60405161041591906142f7565b60405180910390f35b34801561042a57600080fd5b50610433610e48565b60405161044091906142f7565b60405180910390f35b34801561045557600080fd5b5061045e610e52565b60405161046b91906141f0565b60405180910390f35b34801561048057600080fd5b50610489610e78565b60405161049691906142f7565b60405180910390f35b3480156104ab57600080fd5b506104b4610e7e565b005b3480156104c257600080fd5b506104dd60048036038101906104d89190614312565b610f4a565b005b3480156104eb57600080fd5b506105066004803603810190610501919061433f565b610fd0565b60405161051391906142cd565b60405180910390f35b34801561052857600080fd5b50610531611107565b60405161053e91906142f7565b60405180910390f35b34801561055357600080fd5b5061055c6111fc565b60405161056991906142f7565b60405180910390f35b34801561057e57600080fd5b5061059960048036038101906105949190614392565b611202565b005b3480156105a757600080fd5b506105b06112c2565b6040516105bd91906143db565b60405180910390f35b3480156105d257600080fd5b506105db6112cb565b6040516105e891906142f7565b60405180910390f35b3480156105fd57600080fd5b5061061860048036038101906106139190614272565b6112d1565b005b34801561062657600080fd5b50610641600480360381019061063c9190614422565b61140e565b005b34801561064f57600080fd5b5061066a60048036038101906106659190614272565b61152d565b60405161067791906142cd565b60405180910390f35b34801561068c57600080fd5b50610695611729565b6040516106a291906143db565b60405180910390f35b3480156106b757600080fd5b506106c061172e565b6040516106cd91906142f7565b60405180910390f35b3480156106e257600080fd5b506106eb611734565b6040516106f891906142f7565b60405180910390f35b34801561070d57600080fd5b5061071661173a565b60405161072391906142f7565b60405180910390f35b34801561073857600080fd5b506107416117a2565b60405161074e91906142f7565b60405180910390f35b34801561076357600080fd5b5061076c6117a8565b60405161077991906142cd565b60405180910390f35b34801561078e57600080fd5b506107a960048036038101906107a49190614392565b6117b9565b6040516107b691906142f7565b60405180910390f35b3480156107cb57600080fd5b506107d4611816565b005b3480156107e257600080fd5b506107eb61189e565b005b3480156107f957600080fd5b50610802611922565b60405161080f91906142f7565b60405180910390f35b34801561082457600080fd5b5061082d611928565b60405161083a91906142cd565b60405180910390f35b34801561084f57600080fd5b5061086a60048036038101906108659190614392565b61193f565b005b34801561087857600080fd5b50610893600480360381019061088e9190614462565b611a16565b005b3480156108a157600080fd5b506108aa611ac4565b6040516108b791906141f0565b60405180910390f35b3480156108cc57600080fd5b506108d5611aed565b6040516108e291906142cd565b60405180910390f35b3480156108f757600080fd5b50610900611b00565b60405161090d919061418d565b60405180910390f35b34801561092257600080fd5b5061092b611b3d565b60405161093891906142f7565b60405180910390f35b34801561094d57600080fd5b50610956611b43565b60405161096391906142f7565b60405180910390f35b34801561097857600080fd5b50610993600480360381019061098e9190614272565b611b49565b6040516109a091906142cd565b60405180910390f35b3480156109b557600080fd5b506109be611dd9565b6040516109cb91906141f0565b60405180910390f35b3480156109e057600080fd5b506109fb60048036038101906109f69190614272565b611dff565b604051610a0891906142cd565b60405180910390f35b348015610a1d57600080fd5b50610a26611e52565b604051610a3391906142f7565b60405180910390f35b348015610a4857600080fd5b50610a51611e58565b005b348015610a5f57600080fd5b50610a686121dc565b604051610a7591906142f7565b60405180910390f35b348015610a8a57600080fd5b50610a936121e2565b604051610aa091906141f0565b60405180910390f35b348015610ab557600080fd5b50610abe612208565b604051610acb91906142f7565b60405180910390f35b348015610ae057600080fd5b50610afb6004803603810190610af691906144ef565b61220e565b005b348015610b0957600080fd5b50610b246004803603810190610b1f9190614392565b6122d4565b604051610b3191906142cd565b60405180910390f35b348015610b4657600080fd5b50610b616004803603810190610b5c9190614312565b61232a565b604051610b6e91906142f7565b60405180910390f35b348015610b8357600080fd5b50610b9e6004803603810190610b99919061451c565b6123ec565b005b348015610bac57600080fd5b50610bc76004803603810190610bc2919061456f565b612530565b604051610bd491906142f7565b60405180910390f35b348015610be957600080fd5b50610c046004803603810190610bff91906144ef565b6125b7565b005b348015610c1257600080fd5b50610c1b61267d565b604051610c2891906142f7565b60405180910390f35b348015610c3d57600080fd5b50610c46612684565b604051610c5391906142cd565b60405180910390f35b348015610c6857600080fd5b50610c836004803603810190610c7e9190614392565b612697565b005b348015610c9157600080fd5b50610c9a61278e565b604051610ca7919061460e565b60405180910390f35b348015610cbc57600080fd5b50610cd76004803603810190610cd29190614392565b6127b4565b604051610ce491906142cd565b60405180910390f35b60606040518060400160405280600581526020017f5374617368000000000000000000000000000000000000000000000000000000815250905090565b601360009054906101000a900473ffffffffffffffffffffffffffffffffffffffff1681565b600081600560003373ffffffffffffffffffffffffffffffffffffffff1673ffffffffffffffffffffffffffffffffffffffff16815260200190815260200160002060008573ffffffffffffffffffffffffffffffffffffffff1673ffffffffffffffffffffffffffffffffffffffff168152602001908152602001600020819055508273ffffffffffffffffffffffffffffffffffffffff163373ffffffffffffffffffffffffffffffffffffffff167f8c5be1e5ebec7d5bd14f71427d1e84f3dd0314c0f7b2291e5b200ac8c7c3b92584604051610e3091906142f7565b60405180910390a36001905092915050565b600d5481565b6000600154905090565b601460009054906101000a900473ffffffffffffffffffffffffffffffffffffffff1681565b600c5481565b610e86612800565b73ffffffffffffffffffffffffffffffffffffffff16610ea4611ac4565b73ffffffffffffffffffffffffffffffffffffffff1614610efa576040517f08c379a0000000000000000000000000000000000000000000000000000000008152600401610ef190614675565b60405180910390fd5b610f02611ac4565b73ffffffffffffffffffffffffffffffffffffffff166108fc479081150290604051600060405180830381858888f19350505050158015610f47573d6000803e3d6000fd5b50565b610f52612800565b73ffffffffffffffffffffffffffffffffffffffff16610f70611ac4565b73ffffffffffffffffffffffffffffffffffffffff1614610fc6576040517f08c379a0000000000000000000000000000000000000000000000000000000008152600401610fbd90614675565b60405180910390fd5b8060068190555050565b600082600073ffffffffffffffffffffffffffffffffffffffff168173ffffffffffffffffffffffffffffffffffffffff160361100c57600080fd5b60006110188633612530565b905060001981146110ee5761106d846040518060400160405280601d81526020017f45524332303a20696e73756666696369656e7420616c6c6f77616e6365000000815250836128089092919063ffffffff16565b600560008873ffffffffffffffffffffffffffffffffffffffff1673ffffffffffffffffffffffffffffffffffffffff16815260200190815260200160002060003373ffffffffffffffffffffffffffffffffffffffff1673ffffffffffffffffffffffffffffffffffffffff168152602001908152602001600020819055505b6110f986868661285d565b506001925050509392505050565b60006111f76002546111e9600460008073ffffffffffffffffffffffffffffffffffffffff1673ffffffffffffffffffffffffffffffffffffffff168152602001908152602001600020546111db6004600061dead73ffffffffffffffffffffffffffffffffffffffff1673ffffffffffffffffffffffffffffffffffffffff168152602001908152602001600020546005600a6111a591906147f7565b6207a1206111b39190614842565b6000196111c091906148cb565b6000196111cd91906148fc565b612bb390919063ffffffff16565b612bb390919063ffffffff16565b6127ea90919063ffffffff16565b905090565b600a5481565b61120a612800565b73ffffffffffffffffffffffffffffffffffffffff16611228611ac4565b73ffffffffffffffffffffffffffffffffffffffff161461127e576040517f08c379a000000000000000000000000000000000000000000000000000000000815260040161127590614675565b60405180910390fd5b80601560006101000a81548173ffffffffffffffffffffffffffffffffffffffff021916908373ffffffffffffffffffffffffffffffffffffffff16021790555050565b60006005905090565b60001981565b6112d9612800565b73ffffffffffffffffffffffffffffffffffffffff166112f7611ac4565b73ffffffffffffffffffffffffffffffffffffffff161461134d576040517f08c379a000000000000000000000000000000000000000000000000000000000815260040161134490614675565b60405180910390fd5b8173ffffffffffffffffffffffffffffffffffffffff1663a9059cbb33836040518363ffffffff1660e01b8152600401611388929190614930565b6020604051808303816000875af11580156113a7573d6000803e3d6000fd5b505050506040513d601f19601f820116820180604052508101906113cb919061496e565b61140a576040517f08c379a0000000000000000000000000000000000000000000000000000000008152600401611401906149e7565b60405180910390fd5b5050565b611416612800565b73ffffffffffffffffffffffffffffffffffffffff16611434611ac4565b73ffffffffffffffffffffffffffffffffffffffff161461148a576040517f08c379a000000000000000000000000000000000000000000000000000000000815260040161148190614675565b60405180910390fd5b61149382612bc9565b6114d2576040517f08c379a00000000000000000000000000000000000000000000000000000000081526004016114c990614a53565b60405180910390fd5b80601760008473ffffffffffffffffffffffffffffffffffffffff1673ffffffffffffffffffffffffffffffffffffffff16815260200190815260200160002060006101000a81548160ff0219169083151502179055505050565b60006115be82600560003373ffffffffffffffffffffffffffffffffffffffff1673ffffffffffffffffffffffffffffffffffffffff16815260200190815260200160002060008673ffffffffffffffffffffffffffffffffffffffff1673ffffffffffffffffffffffffffffffffffffffff168152602001908152602001600020546127d490919063ffffffff16565b600560003373ffffffffffffffffffffffffffffffffffffffff1673ffffffffffffffffffffffffffffffffffffffff16815260200190815260200160002060008573ffffffffffffffffffffffffffffffffffffffff1673ffffffffffffffffffffffffffffffffffffffff168152602001908152602001600020819055508273ffffffffffffffffffffffffffffffffffffffff163373ffffffffffffffffffffffffffffffffffffffff167f8c5be1e5ebec7d5bd14f71427d1e84f3dd0314c0f7b2291e5b200ac8c7c3b925600560003373ffffffffffffffffffffffffffffffffffffffff1673ffffffffffffffffffffffffffffffffffffffff16815260200190815260200160002060008773ffffffffffffffffffffffffffffffffffffffff1673ffffffffffffffffffffffffffffffffffffffff1681526020019081526020016000205460405161171791906142f7565b60405180910390a36001905092915050565b600781565b60105481565b61038481565b600080600f544261174b91906148fc565b90506301e1338081101561176357600654915061179e565b6301e1338081106117775760d3915061179d565b6302d1cd40811061178b57600e915061179c565b630d286880811061179b57600291505b5b5b5b5090565b60095481565b60148054906101000a900460ff1681565b600061180f600254600460008573ffffffffffffffffffffffffffffffffffffffff1673ffffffffffffffffffffffffffffffffffffffff168152602001908152602001600020546127ea90919063ffffffff16565b9050919050565b61181e612800565b73ffffffffffffffffffffffffffffffffffffffff1661183c611ac4565b73ffffffffffffffffffffffffffffffffffffffff1614611892576040517f08c379a000000000000000000000000000000000000000000000000000000000815260040161188990614675565b60405180910390fd5b61189c6000612bdc565b565b601560009054906101000a900473ffffffffffffffffffffffffffffffffffffffff1673ffffffffffffffffffffffffffffffffffffffff1663fff6cae96040518163ffffffff1660e01b8152600401600060405180830381600087803b15801561190857600080fd5b505af115801561191c573d6000803e3d6000fd5b50505050565b60065481565b60008060149054906101000a900460ff1615905090565b611947612800565b73ffffffffffffffffffffffffffffffffffffffff16611965611ac4565b73ffffffffffffffffffffffffffffffffffffffff16146119bb576040517f08c379a00000000000000000000000000000000000000000000000000000000081526004016119b290614675565b60405180910390fd5b6001600360008373ffffffffffffffffffffffffffffffffffffffff1673ffffffffffffffffffffffffffffffffffffffff16815260200190815260200160002060006101000a81548160ff02191690831515021790555050565b611a1e612800565b73ffffffffffffffffffffffffffffffffffffffff16611a3c611ac4565b73ffffffffffffffffffffffffffffffffffffffff1614611a92576040517f08c379a0000000000000000000000000000000000000000000000000000000008152600401611a8990614675565b60405180910390fd5b85600781905550846008819055508360098190555082600a8190555081600b8190555080600d81905550505050505050565b60008060009054906101000a900473ffffffffffffffffffffffffffffffffffffffff16905090565b600e60009054906101000a900460ff1681565b60606040518060400160405280600581526020017f5354415348000000000000000000000000000000000000000000000000000000815250905090565b60075481565b60115481565b600080600560003373ffffffffffffffffffffffffffffffffffffffff1673ffffffffffffffffffffffffffffffffffffffff16815260200190815260200160002060008573ffffffffffffffffffffffffffffffffffffffff1673ffffffffffffffffffffffffffffffffffffffff168152602001908152602001600020549050808310611c59576000600560003373ffffffffffffffffffffffffffffffffffffffff1673ffffffffffffffffffffffffffffffffffffffff16815260200190815260200160002060008673ffffffffffffffffffffffffffffffffffffffff1673ffffffffffffffffffffffffffffffffffffffff16815260200190815260200160002081905550611ced565b611c6c8382612bb390919063ffffffff16565b600560003373ffffffffffffffffffffffffffffffffffffffff1673ffffffffffffffffffffffffffffffffffffffff16815260200190815260200160002060008673ffffffffffffffffffffffffffffffffffffffff1673ffffffffffffffffffffffffffffffffffffffff168152602001908152602001600020819055505b8373ffffffffffffffffffffffffffffffffffffffff163373ffffffffffffffffffffffffffffffffffffffff167f8c5be1e5ebec7d5bd14f71427d1e84f3dd0314c0f7b2291e5b200ac8c7c3b925600560003373ffffffffffffffffffffffffffffffffffffffff1673ffffffffffffffffffffffffffffffffffffffff16815260200190815260200160002060008873ffffffffffffffffffffffffffffffffffffffff1673ffffffffffffffffffffffffffffffffffffffff16815260200190815260200160002054604051611dc691906142f7565b60405180910390a3600191505092915050565b601560009054906101000a900473ffffffffffffffffffffffffffffffffffffffff1681565b600082600073ffffffffffffffffffffffffffffffffffffffff168173ffffffffffffffffffffffffffffffffffffffff1603611e3b57600080fd5b611e4633858561285d565b50600191505092915050565b600f5481565b6001600060146101000a81548160ff021916908315150217905550611e7b612800565b73ffffffffffffffffffffffffffffffffffffffff16611e99611ac4565b73ffffffffffffffffffffffffffffffffffffffff1614611eef576040517f08c379a0000000000000000000000000000000000000000000000000000000008152600401611ee690614675565b60405180910390fd5b6000611f45600254600460003073ffffffffffffffffffffffffffffffffffffffff1673ffffffffffffffffffffffffffffffffffffffff168152602001908152602001600020546127ea90919063ffffffff16565b905060008111611f8a576040517f08c379a0000000000000000000000000000000000000000000000000000000008152600401611f8190614abf565b60405180910390fd5b6000600267ffffffffffffffff811115611fa757611fa6614adf565b5b604051908082528060200260200182016040528015611fd55781602001602082028036833780820191505090505b5090503081600081518110611fed57611fec614b0e565b5b602002602001019073ffffffffffffffffffffffffffffffffffffffff16908173ffffffffffffffffffffffffffffffffffffffff1681525050601660009054906101000a900473ffffffffffffffffffffffffffffffffffffffff1673ffffffffffffffffffffffffffffffffffffffff166373b295c26040518163ffffffff1660e01b8152600401602060405180830381865afa158015612094573d6000803e3d6000fd5b505050506040513d601f19601f820116820180604052508101906120b89190614b52565b816001815181106120cc576120cb614b0e565b5b602002602001019073ffffffffffffffffffffffffffffffffffffffff16908173ffffffffffffffffffffffffffffffffffffffff1681525050601660009054906101000a900473ffffffffffffffffffffffffffffffffffffffff1673ffffffffffffffffffffffffffffffffffffffff1663762b156283600084601360009054906101000a900473ffffffffffffffffffffffffffffffffffffffff16426040518663ffffffff1660e01b815260040161218c959493929190614c78565b600060405180830381600087803b1580156121a657600080fd5b505af11580156121ba573d6000803e3d6000fd5b50505050505060008060146101000a81548160ff021916908315150217905550565b600b5481565b601260009054906101000a900473ffffffffffffffffffffffffffffffffffffffff1681565b60085481565b612216612800565b73ffffffffffffffffffffffffffffffffffffffff16612234611ac4565b73ffffffffffffffffffffffffffffffffffffffff161461228a576040517f08c379a000000000000000000000000000000000000000000000000000000000815260040161228190614675565b60405180910390fd5b80156122b65780600e60016101000a81548160ff021916908315150217905550426011819055506122d1565b80600e60016101000a81548160ff0219169083151502179055505b50565b6000600360008373ffffffffffffffffffffffffffffffffffffffff1673ffffffffffffffffffffffffffffffffffffffff16815260200190815260200160002060009054906101000a900460ff169050919050565b6000806123a360025460046000601560009054906101000a900473ffffffffffffffffffffffffffffffffffffffff1673ffffffffffffffffffffffffffffffffffffffff1673ffffffffffffffffffffffffffffffffffffffff168152602001908152602001600020546127ea90919063ffffffff16565b90506123e46123b0611107565b6123d66123c7600285612ca090919063ffffffff16565b86612ca090919063ffffffff16565b6127ea90919063ffffffff16565b915050919050565b6123f4612800565b73ffffffffffffffffffffffffffffffffffffffff16612412611ac4565b73ffffffffffffffffffffffffffffffffffffffff1614612468576040517f08c379a000000000000000000000000000000000000000000000000000000000815260040161245f90614675565b60405180910390fd5b82601260006101000a81548173ffffffffffffffffffffffffffffffffffffffff021916908373ffffffffffffffffffffffffffffffffffffffff16021790555081601360006101000a81548173ffffffffffffffffffffffffffffffffffffffff021916908373ffffffffffffffffffffffffffffffffffffffff16021790555080601460006101000a81548173ffffffffffffffffffffffffffffffffffffffff021916908373ffffffffffffffffffffffffffffffffffffffff160217905550505050565b6000600560008473ffffffffffffffffffffffffffffffffffffffff1673ffffffffffffffffffffffffffffffffffffffff16815260200190815260200160002060008373ffffffffffffffffffffffffffffffffffffffff1673ffffffffffffffffffffffffffffffffffffffff16815260200190815260200160002054905092915050565b6125bf612800565b73ffffffffffffffffffffffffffffffffffffffff166125dd611ac4565b73ffffffffffffffffffffffffffffffffffffffff1614612633576040517f08c379a000000000000000000000000000000000000000000000000000000000815260040161262a90614675565b60405180910390fd5b801561265f5780600e60006101000a81548160ff0219169083151502179055504260108190555061267a565b80600e60006101000a81548160ff0219169083151502179055505b50565b6202a30081565b600e60019054906101000a900460ff1681565b61269f612800565b73ffffffffffffffffffffffffffffffffffffffff166126bd611ac4565b73ffffffffffffffffffffffffffffffffffffffff1614612713576040517f08c379a000000000000000000000000000000000000000000000000000000000815260040161270a90614675565b60405180910390fd5b600073ffffffffffffffffffffffffffffffffffffffff168173ffffffffffffffffffffffffffffffffffffffff1603612782576040517f08c379a000000000000000000000000000000000000000000000000000000000815260040161277990614d44565b60405180910390fd5b61278b81612bdc565b50565b601660009054906101000a900473ffffffffffffffffffffffffffffffffffffffff1681565b60176020528060005260406000206000915054906101000a900460ff1681565b600081836127e29190614d64565b905092915050565b600081836127f89190614dba565b905092915050565b600033905090565b6000838311158290612850576040517f08c379a0000000000000000000000000000000000000000000000000000000008152600401612847919061418d565b60405180910390fd5b5082840390509392505050565b6000601760008573ffffffffffffffffffffffffffffffffffffffff1673ffffffffffffffffffffffffffffffffffffffff16815260200190815260200160002060009054906101000a900460ff161580156129035750601760008473ffffffffffffffffffffffffffffffffffffffff1673ffffffffffffffffffffffffffffffffffffffff16815260200190815260200160002060009054906101000a900460ff16155b612942576040517f08c379a000000000000000000000000000000000000000000000000000000000815260040161293990614e37565b60405180910390fd5b600060149054906101000a900460ff161561296957612962848484612cb6565b9050612bac565b612971612e20565b1561297f5761297e612eef565b5b61298761310c565b15612995576129946131b2565b5b61299d613720565b156129ab576129aa613791565b5b60006129c260025484612ca090919063ffffffff16565b9050612a3081604051806060016040528060268152602001614faf60269139600460008973ffffffffffffffffffffffffffffffffffffffff1673ffffffffffffffffffffffffffffffffffffffff168152602001908152602001600020546128089092919063ffffffff16565b600460008773ffffffffffffffffffffffffffffffffffffffff1673ffffffffffffffffffffffffffffffffffffffff168152602001908152602001600020819055506000612a7f8686613c00565b612a895781612a95565b612a94868684613d09565b5b9050612ae981600460008873ffffffffffffffffffffffffffffffffffffffff1673ffffffffffffffffffffffffffffffffffffffff168152602001908152602001600020546127d490919063ffffffff16565b600460008773ffffffffffffffffffffffffffffffffffffffff1673ffffffffffffffffffffffffffffffffffffffff168152602001908152602001600020819055508473ffffffffffffffffffffffffffffffffffffffff168673ffffffffffffffffffffffffffffffffffffffff167fddf252ad1be2c89b69c2b068fc378daa952ba7f163c4a11628f55a4df523b3ef612b90600254856127ea90919063ffffffff16565b604051612b9d91906142f7565b60405180910390a36001925050505b9392505050565b60008183612bc191906148fc565b905092915050565b600080823b905060008111915050919050565b60008060009054906101000a900473ffffffffffffffffffffffffffffffffffffffff169050816000806101000a81548173ffffffffffffffffffffffffffffffffffffffff021916908373ffffffffffffffffffffffffffffffffffffffff1602179055508173ffffffffffffffffffffffffffffffffffffffff168173ffffffffffffffffffffffffffffffffffffffff167f8be0079c531659141344cd1fd0a4f28419497f9722a3daafe3b4186f6b6457e060405160405180910390a35050565b60008183612cae9190614842565b905092915050565b600080612cce60025484612ca090919063ffffffff16565b9050612d3c81604051806060016040528060268152602001614faf60269139600460008973ffffffffffffffffffffffffffffffffffffffff1673ffffffffffffffffffffffffffffffffffffffff168152602001908152602001600020546128089092919063ffffffff16565b600460008773ffffffffffffffffffffffffffffffffffffffff1673ffffffffffffffffffffffffffffffffffffffff16815260200190815260200160002081905550612dd181600460008773ffffffffffffffffffffffffffffffffffffffff1673ffffffffffffffffffffffffffffffffffffffff168152602001908152602001600020546127d490919063ffffffff16565b600460008673ffffffffffffffffffffffffffffffffffffffff1673ffffffffffffffffffffffffffffffffffffffff1681526020019081526020016000208190555060019150509392505050565b6000600e60009054906101000a900460ff168015612e5c57506005600a612e4791906147f7565b64012a05f200612e579190614842565b600154105b8015612eb65750601560009054906101000a900473ffffffffffffffffffffffffffffffffffffffff1673ffffffffffffffffffffffffffffffffffffffff163373ffffffffffffffffffffffffffffffffffffffff1614155b8015612ecf5750600060149054906101000a900460ff16155b8015612eea5750610384601054612ee69190614d64565b4210155b905090565b600060149054906101000a900460ff1661310a57600060105442612f1391906148fc565b90506000612f2c610384836127ea90919063ffffffff16565b90506000612f44600f83612ca090919063ffffffff16565b90506000612f5061173a565b905060005b83811015612fc957612fb06007600a612f6e91906147f7565b612fa2612f91856007600a612f8391906147f7565b6127d490919063ffffffff16565b600154612ca090919063ffffffff16565b6127ea90919063ffffffff16565b6001819055508080612fc190614e57565b915050612f55565b506130146001546005600a612fde91906147f7565b6207a120612fec9190614842565b600019612ff991906148cb565b60001961300691906148fc565b6127ea90919063ffffffff16565b60028190555061304361303261038485612ca090919063ffffffff16565b6010546127d490919063ffffffff16565b601081905550601560009054906101000a900473ffffffffffffffffffffffffffffffffffffffff1673ffffffffffffffffffffffffffffffffffffffff1663fff6cae96040518163ffffffff1660e01b8152600401600060405180830381600087803b1580156130b357600080fd5b505af11580156130c7573d6000803e3d6000fd5b50505050817f72725a3b1e5bd622d6bcd1339bb31279c351abe8f541ac7fd320f24e1b1641f26001546040516130fd91906142f7565b60405180910390a2505050505b565b6000600e60019054906101000a900460ff1680156131375750600060149054906101000a900460ff16155b80156131915750601560009054906101000a900473ffffffffffffffffffffffffffffffffffffffff1673ffffffffffffffffffffffffffffffffffffffff163373ffffffffffffffffffffffffffffffffffffffff1614155b80156131ad57506202a3006011546131a99190614d64565b4210155b905090565b6001600060146101000a81548160ff021916908315150217905550600061324560025460046000601260009054906101000a900473ffffffffffffffffffffffffffffffffffffffff1673ffffffffffffffffffffffffffffffffffffffff1673ffffffffffffffffffffffffffffffffffffffff168152602001908152602001600020546127ea90919063ffffffff16565b90506132fa60046000601260009054906101000a900473ffffffffffffffffffffffffffffffffffffffff1673ffffffffffffffffffffffffffffffffffffffff1673ffffffffffffffffffffffffffffffffffffffff16815260200190815260200160002054600460003073ffffffffffffffffffffffffffffffffffffffff1673ffffffffffffffffffffffffffffffffffffffff168152602001908152602001600020546127d490919063ffffffff16565b600460003073ffffffffffffffffffffffffffffffffffffffff1673ffffffffffffffffffffffffffffffffffffffff16815260200190815260200160002081905550600060046000601260009054906101000a900473ffffffffffffffffffffffffffffffffffffffff1673ffffffffffffffffffffffffffffffffffffffff1673ffffffffffffffffffffffffffffffffffffffff1681526020019081526020016000208190555060006133ba6002836127ea90919063ffffffff16565b905060006133d18284612bb390919063ffffffff16565b9050600081036133e357505050613704565b6000600267ffffffffffffffff811115613400576133ff614adf565b5b60405190808252806020026020018201604052801561342e5781602001602082028036833780820191505090505b509050308160008151811061344657613445614b0e565b5b602002602001019073ffffffffffffffffffffffffffffffffffffffff16908173ffffffffffffffffffffffffffffffffffffffff1681525050601660009054906101000a900473ffffffffffffffffffffffffffffffffffffffff1673ffffffffffffffffffffffffffffffffffffffff166373b295c26040518163ffffffff1660e01b8152600401602060405180830381865afa1580156134ed573d6000803e3d6000fd5b505050506040513d601f19601f820116820180604052508101906135119190614b52565b8160018151811061352557613524614b0e565b5b602002602001019073ffffffffffffffffffffffffffffffffffffffff16908173ffffffffffffffffffffffffffffffffffffffff16815250506000479050601660009054906101000a900473ffffffffffffffffffffffffffffffffffffffff1673ffffffffffffffffffffffffffffffffffffffff1663762b15628460008530426040518663ffffffff1660e01b81526004016135c8959493929190614c78565b600060405180830381600087803b1580156135e257600080fd5b505af11580156135f6573d6000803e3d6000fd5b50505050600061360f8247612bb390919063ffffffff16565b90506000851180156136215750600081115b156136f657601660009054906101000a900473ffffffffffffffffffffffffffffffffffffffff1673ffffffffffffffffffffffffffffffffffffffff1663f91b3f72823088600080601260009054906101000a900473ffffffffffffffffffffffffffffffffffffffff16426040518863ffffffff1660e01b81526004016136af96959493929190614e9f565b60606040518083038185885af11580156136cd573d6000803e3d6000fd5b50505050506040513d601f19601f820116820180604052508101906136f29190614f15565b5050505b426011819055505050505050505b60008060146101000a81548160ff021916908315150217905550565b60008060149054906101000a900460ff1615801561378c5750601560009054906101000a900473ffffffffffffffffffffffffffffffffffffffff1673ffffffffffffffffffffffffffffffffffffffff163373ffffffffffffffffffffffffffffffffffffffff1614155b905090565b6001600060146101000a81548160ff0219169083151502179055506000613802600254600460003073ffffffffffffffffffffffffffffffffffffffff1673ffffffffffffffffffffffffffffffffffffffff168152602001908152602001600020546127ea90919063ffffffff16565b9050600081036138125750613be4565b60004790506000600267ffffffffffffffff81111561383457613833614adf565b5b6040519080825280602002602001820160405280156138625781602001602082028036833780820191505090505b509050308160008151811061387a57613879614b0e565b5b602002602001019073ffffffffffffffffffffffffffffffffffffffff16908173ffffffffffffffffffffffffffffffffffffffff1681525050601660009054906101000a900473ffffffffffffffffffffffffffffffffffffffff1673ffffffffffffffffffffffffffffffffffffffff166373b295c26040518163ffffffff1660e01b8152600401602060405180830381865afa158015613921573d6000803e3d6000fd5b505050506040513d601f19601f820116820180604052508101906139459190614b52565b8160018151811061395957613958614b0e565b5b602002602001019073ffffffffffffffffffffffffffffffffffffffff16908173ffffffffffffffffffffffffffffffffffffffff1681525050601660009054906101000a900473ffffffffffffffffffffffffffffffffffffffff1673ffffffffffffffffffffffffffffffffffffffff1663762b15628460008430426040518663ffffffff1660e01b81526004016139f7959493929190614c78565b600060405180830381600087803b158015613a1157600080fd5b505af1158015613a25573d6000803e3d6000fd5b505050506000613a3e8347612bb390919063ffffffff16565b90506000601360009054906101000a900473ffffffffffffffffffffffffffffffffffffffff1673ffffffffffffffffffffffffffffffffffffffff16613ab8613a956009546008546127d490919063ffffffff16565b613aaa60085486612ca090919063ffffffff16565b6127ea90919063ffffffff16565b61753090604051613ac890614f99565b600060405180830381858888f193505050503d8060008114613b06576040519150601f19603f3d011682016040523d82523d6000602084013e613b0b565b606091505b50509050601460009054906101000a900473ffffffffffffffffffffffffffffffffffffffff1673ffffffffffffffffffffffffffffffffffffffff16613b85613b626009546008546127d490919063ffffffff16565b613b7760095486612ca090919063ffffffff16565b6127ea90919063ffffffff16565b61753090604051613b9590614f99565b600060405180830381858888f193505050503d8060008114613bd3576040519150601f19603f3d011682016040523d82523d6000602084013e613bd8565b606091505b50508091505050505050505b60008060146101000a81548160ff021916908315150217905550565b60008273ffffffffffffffffffffffffffffffffffffffff16601560009054906101000a900473ffffffffffffffffffffffffffffffffffffffff1673ffffffffffffffffffffffffffffffffffffffff161480613cab57508173ffffffffffffffffffffffffffffffffffffffff16601560009054906101000a900473ffffffffffffffffffffffffffffffffffffffff1673ffffffffffffffffffffffffffffffffffffffff16145b8015613d015750600360008473ffffffffffffffffffffffffffffffffffffffff1673ffffffffffffffffffffffffffffffffffffffff16815260200190815260200160002060009054906101000a900460ff16155b905092915050565b600080600c54905060006008549050601560009054906101000a900473ffffffffffffffffffffffffffffffffffffffff1673ffffffffffffffffffffffffffffffffffffffff168573ffffffffffffffffffffffffffffffffffffffff1603613da057613d84600a54600c546127d490919063ffffffff16565b9150613d9d600a546008546127d490919063ffffffff16565b90505b6000613dc983613dbb600d54886127ea90919063ffffffff16565b612ca090919063ffffffff16565b9050613e47613df7600b54613de9600d54896127ea90919063ffffffff16565b612ca090919063ffffffff16565b6004600061dead73ffffffffffffffffffffffffffffffffffffffff1673ffffffffffffffffffffffffffffffffffffffff168152602001908152602001600020546127d490919063ffffffff16565b6004600061dead73ffffffffffffffffffffffffffffffffffffffff1673ffffffffffffffffffffffffffffffffffffffff16815260200190815260200160002081905550613f18613eca613ea7600954856127d490919063ffffffff16565b613ebc600d54896127ea90919063ffffffff16565b612ca090919063ffffffff16565b600460003073ffffffffffffffffffffffffffffffffffffffff1673ffffffffffffffffffffffffffffffffffffffff168152602001908152602001600020546127d490919063ffffffff16565b600460003073ffffffffffffffffffffffffffffffffffffffff1673ffffffffffffffffffffffffffffffffffffffff16815260200190815260200160002081905550613ff7613f87600754613f79600d54896127ea90919063ffffffff16565b612ca090919063ffffffff16565b60046000601260009054906101000a900473ffffffffffffffffffffffffffffffffffffffff1673ffffffffffffffffffffffffffffffffffffffff1673ffffffffffffffffffffffffffffffffffffffff168152602001908152602001600020546127d490919063ffffffff16565b60046000601260009054906101000a900473ffffffffffffffffffffffffffffffffffffffff1673ffffffffffffffffffffffffffffffffffffffff1673ffffffffffffffffffffffffffffffffffffffff168152602001908152602001600020819055503073ffffffffffffffffffffffffffffffffffffffff168773ffffffffffffffffffffffffffffffffffffffff167fddf252ad1be2c89b69c2b068fc378daa952ba7f163c4a11628f55a4df523b3ef6140c0600254856127ea90919063ffffffff16565b6040516140cd91906142f7565b60405180910390a36140e88186612bb390919063ffffffff16565b93505050509392505050565b600081519050919050565b600082825260208201905092915050565b60005b8381101561412e578082015181840152602081019050614113565b8381111561413d576000848401525b50505050565b6000601f19601f8301169050919050565b600061415f826140f4565b61416981856140ff565b9350614179818560208601614110565b61418281614143565b840191505092915050565b600060208201905081810360008301526141a78184614154565b905092915050565b600073ffffffffffffffffffffffffffffffffffffffff82169050919050565b60006141da826141af565b9050919050565b6141ea816141cf565b82525050565b600060208201905061420560008301846141e1565b92915050565b600080fd5b614219816141cf565b811461422457600080fd5b50565b60008135905061423681614210565b92915050565b6000819050919050565b61424f8161423c565b811461425a57600080fd5b50565b60008135905061426c81614246565b92915050565b600080604083850312156142895761428861420b565b5b600061429785828601614227565b92505060206142a88582860161425d565b9150509250929050565b60008115159050919050565b6142c7816142b2565b82525050565b60006020820190506142e260008301846142be565b92915050565b6142f18161423c565b82525050565b600060208201905061430c60008301846142e8565b92915050565b6000602082840312156143285761432761420b565b5b60006143368482850161425d565b91505092915050565b6000806000606084860312156143585761435761420b565b5b600061436686828701614227565b935050602061437786828701614227565b92505060406143888682870161425d565b9150509250925092565b6000602082840312156143a8576143a761420b565b5b60006143b684828501614227565b91505092915050565b600060ff82169050919050565b6143d5816143bf565b82525050565b60006020820190506143f060008301846143cc565b92915050565b6143ff816142b2565b811461440a57600080fd5b50565b60008135905061441c816143f6565b92915050565b600080604083850312156144395761443861420b565b5b600061444785828601614227565b92505060206144588582860161440d565b9150509250929050565b60008060008060008060c0878903121561447f5761447e61420b565b5b600061448d89828a0161425d565b965050602061449e89828a0161425d565b95505060406144af89828a0161425d565b94505060606144c089828a0161425d565b93505060806144d189828a0161425d565b92505060a06144e289828a0161425d565b9150509295509295509295565b6000602082840312156145055761450461420b565b5b60006145138482850161440d565b91505092915050565b6000806000606084860312156145355761453461420b565b5b600061454386828701614227565b935050602061455486828701614227565b925050604061456586828701614227565b9150509250925092565b600080604083850312156145865761458561420b565b5b600061459485828601614227565b92505060206145a585828601614227565b9150509250929050565b6000819050919050565b60006145d46145cf6145ca846141af565b6145af565b6141af565b9050919050565b60006145e6826145b9565b9050919050565b60006145f8826145db565b9050919050565b614608816145ed565b82525050565b600060208201905061462360008301846145ff565b92915050565b7f4f776e61626c653a2063616c6c6572206973206e6f7420746865206f776e6572600082015250565b600061465f6020836140ff565b915061466a82614629565b602082019050919050565b6000602082019050818103600083015261468e81614652565b9050919050565b7f4e487b7100000000000000000000000000000000000000000000000000000000600052601160045260246000fd5b60008160011c9050919050565b6000808291508390505b600185111561471b578086048111156146f7576146f6614695565b5b60018516156147065780820291505b8081029050614714856146c4565b94506146db565b94509492505050565b60008261473457600190506147f0565b8161474257600090506147f0565b8160018114614758576002811461476257614791565b60019150506147f0565b60ff84111561477457614773614695565b5b8360020a91508482111561478b5761478a614695565b5b506147f0565b5060208310610133831016604e8410600b84101617156147c65782820a9050838111156147c1576147c0614695565b5b6147f0565b6147d384848460016146d1565b925090508184048111156147ea576147e9614695565b5b81810290505b9392505050565b60006148028261423c565b915061480d836143bf565b925061483a7fffffffffffffffffffffffffffffffffffffffffffffffffffffffffffffffff8484614724565b905092915050565b600061484d8261423c565b91506148588361423c565b9250817fffffffffffffffffffffffffffffffffffffffffffffffffffffffffffffffff048311821515161561489157614890614695565b5b828202905092915050565b7f4e487b7100000000000000000000000000000000000000000000000000000000600052601260045260246000fd5b60006148d68261423c565b91506148e18361423c565b9250826148f1576148f061489c565b5b828206905092915050565b60006149078261423c565b91506149128361423c565b92508282101561492557614924614695565b5b828203905092915050565b600060408201905061494560008301856141e1565b61495260208301846142e8565b9392505050565b600081519050614968816143f6565b92915050565b6000602082840312156149845761498361420b565b5b600061499284828501614959565b91505092915050565b7f5245534355455f544f4b454e535f4641494c4544000000000000000000000000600082015250565b60006149d16014836140ff565b91506149dc8261499b565b602082019050919050565b60006020820190508181036000830152614a00816149c4565b9050919050565b7f4d5553545f42455f415f434f4e54524143545f41444452455353000000000000600082015250565b6000614a3d601a836140ff565b9150614a4882614a07565b602082019050919050565b60006020820190508181036000830152614a6c81614a30565b9050919050565b7f4e4f5f544f4b454e535f4445504f534954454400000000000000000000000000600082015250565b6000614aa96013836140ff565b9150614ab482614a73565b602082019050919050565b60006020820190508181036000830152614ad881614a9c565b9050919050565b7f4e487b7100000000000000000000000000000000000000000000000000000000600052604160045260246000fd5b7f4e487b7100000000000000000000000000000000000000000000000000000000600052603260045260246000fd5b600081519050614b4c81614210565b92915050565b600060208284031215614b6857614b6761420b565b5b6000614b7684828501614b3d565b91505092915050565b6000819050919050565b6000614ba4614b9f614b9a84614b7f565b6145af565b61423c565b9050919050565b614bb481614b89565b82525050565b600081519050919050565b600082825260208201905092915050565b6000819050602082019050919050565b614bef816141cf565b82525050565b6000614c018383614be6565b60208301905092915050565b6000602082019050919050565b6000614c2582614bba565b614c2f8185614bc5565b9350614c3a83614bd6565b8060005b83811015614c6b578151614c528882614bf5565b9750614c5d83614c0d565b925050600181019050614c3e565b5085935050505092915050565b600060a082019050614c8d60008301886142e8565b614c9a6020830187614bab565b8181036040830152614cac8186614c1a565b9050614cbb60608301856141e1565b614cc860808301846142e8565b9695505050505050565b7f4f776e61626c653a206e6577206f776e657220697320746865207a65726f206160008201527f6464726573730000000000000000000000000000000000000000000000000000602082015250565b6000614d2e6026836140ff565b9150614d3982614cd2565b604082019050919050565b60006020820190508181036000830152614d5d81614d21565b9050919050565b6000614d6f8261423c565b9150614d7a8361423c565b9250827fffffffffffffffffffffffffffffffffffffffffffffffffffffffffffffffff03821115614daf57614dae614695565b5b828201905092915050565b6000614dc58261423c565b9150614dd08361423c565b925082614de057614ddf61489c565b5b828204905092915050565b7f414444524553535f494e5f424c41434b4c495354000000000000000000000000600082015250565b6000614e216014836140ff565b9150614e2c82614deb565b602082019050919050565b60006020820190508181036000830152614e5081614e14565b9050919050565b6000614e628261423c565b91507fffffffffffffffffffffffffffffffffffffffffffffffffffffffffffffffff8203614e9457614e93614695565b5b600182019050919050565b600060c082019050614eb460008301896141e1565b614ec160208301886142e8565b614ece6040830187614bab565b614edb6060830186614bab565b614ee860808301856141e1565b614ef560a08301846142e8565b979650505050505050565b600081519050614f0f81614246565b92915050565b600080600060608486031215614f2e57614f2d61420b565b5b6000614f3c86828701614f00565b9350506020614f4d86828701614f00565b9250506040614f5e86828701614f00565b9150509250925092565b600081905092915050565b50565b6000614f83600083614f68565b9150614f8e82614f73565b600082019050919050565b6000614fa482614f76565b915081905091905056fe45524332303a207472616e7366657220616d6f756e7420657863656564732062616c616e6365a264697066735822122025495dc43cc78e0205d91d8f6a1b2de06c7a46fbeb645962c4c948fb9c1e97e264736f6c634300080d0033",
  "linkReferences": {},
  "deployedLinkReferences": {}
}